{
  "contractName": "GoPunksStudents",
  "abi": [
    {
      "inputs": [],
      "stateMutability": "nonpayable",
      "type": "constructor"
    },
    {
      "anonymous": false,
      "inputs": [
        {
          "indexed": true,
          "internalType": "address",
          "name": "owner",
          "type": "address"
        },
        {
          "indexed": true,
          "internalType": "address",
          "name": "approved",
          "type": "address"
        },
        {
          "indexed": true,
          "internalType": "uint256",
          "name": "tokenId",
          "type": "uint256"
        }
      ],
      "name": "Approval",
      "type": "event"
    },
    {
      "anonymous": false,
      "inputs": [
        {
          "indexed": true,
          "internalType": "address",
          "name": "owner",
          "type": "address"
        },
        {
          "indexed": true,
          "internalType": "address",
          "name": "operator",
          "type": "address"
        },
        {
          "indexed": false,
          "internalType": "bool",
          "name": "approved",
          "type": "bool"
        }
      ],
      "name": "ApprovalForAll",
      "type": "event"
    },
    {
      "anonymous": false,
      "inputs": [
        {
          "indexed": true,
          "internalType": "address",
          "name": "previousOwner",
          "type": "address"
        },
        {
          "indexed": true,
          "internalType": "address",
          "name": "newOwner",
          "type": "address"
        }
      ],
      "name": "OwnershipTransferred",
      "type": "event"
    },
    {
      "anonymous": false,
      "inputs": [
        {
          "indexed": true,
          "internalType": "address",
          "name": "from",
          "type": "address"
        },
        {
          "indexed": true,
          "internalType": "address",
          "name": "to",
          "type": "address"
        },
        {
          "indexed": true,
          "internalType": "uint256",
          "name": "tokenId",
          "type": "uint256"
        }
      ],
      "name": "Transfer",
      "type": "event"
    },
    {
      "inputs": [],
      "name": "MAX_PUNKSSTUDENTS",
      "outputs": [
        {
          "internalType": "uint256",
          "name": "",
          "type": "uint256"
        }
      ],
      "stateMutability": "view",
      "type": "function"
    },
    {
      "inputs": [],
      "name": "PUNKSSTUDENTS_PRICE",
      "outputs": [
        {
          "internalType": "uint256",
          "name": "",
          "type": "uint256"
        }
      ],
      "stateMutability": "view",
      "type": "function"
    },
    {
      "inputs": [
        {
          "internalType": "address",
          "name": "to",
          "type": "address"
        },
        {
          "internalType": "uint256",
          "name": "tokenId",
          "type": "uint256"
        }
      ],
      "name": "approve",
      "outputs": [],
      "stateMutability": "nonpayable",
      "type": "function"
    },
    {
      "inputs": [],
      "name": "available",
      "outputs": [
        {
          "internalType": "uint16",
          "name": "",
          "type": "uint16"
        }
      ],
      "stateMutability": "view",
      "type": "function"
    },
    {
      "inputs": [
        {
          "internalType": "address",
          "name": "owner",
          "type": "address"
        }
      ],
      "name": "balanceOf",
      "outputs": [
        {
          "internalType": "uint256",
          "name": "",
          "type": "uint256"
        }
      ],
      "stateMutability": "view",
      "type": "function"
    },
    {
      "inputs": [],
      "name": "baseURI",
      "outputs": [
        {
          "internalType": "string",
          "name": "",
          "type": "string"
        }
      ],
      "stateMutability": "view",
      "type": "function"
    },
    {
      "inputs": [
        {
          "internalType": "uint256",
          "name": "tokenId",
          "type": "uint256"
        }
      ],
      "name": "getApproved",
      "outputs": [
        {
          "internalType": "address",
          "name": "",
          "type": "address"
        }
      ],
      "stateMutability": "view",
      "type": "function"
    },
    {
      "inputs": [],
      "name": "hasSaleStarted",
      "outputs": [
        {
          "internalType": "bool",
          "name": "",
          "type": "bool"
        }
      ],
      "stateMutability": "view",
      "type": "function"
    },
    {
      "inputs": [
        {
          "internalType": "address",
          "name": "owner",
          "type": "address"
        },
        {
          "internalType": "address",
          "name": "operator",
          "type": "address"
        }
      ],
      "name": "isApprovedForAll",
      "outputs": [
        {
          "internalType": "bool",
          "name": "",
          "type": "bool"
        }
      ],
      "stateMutability": "view",
      "type": "function"
    },
    {
      "inputs": [],
      "name": "name",
      "outputs": [
        {
          "internalType": "string",
          "name": "",
          "type": "string"
        }
      ],
      "stateMutability": "view",
      "type": "function"
    },
    {
      "inputs": [],
      "name": "owner",
      "outputs": [
        {
          "internalType": "address",
          "name": "",
          "type": "address"
        }
      ],
      "stateMutability": "view",
      "type": "function"
    },
    {
      "inputs": [
        {
          "internalType": "uint256",
          "name": "tokenId",
          "type": "uint256"
        }
      ],
      "name": "ownerOf",
      "outputs": [
        {
          "internalType": "address",
          "name": "",
          "type": "address"
        }
      ],
      "stateMutability": "view",
      "type": "function"
    },
    {
      "inputs": [],
      "name": "renounceOwnership",
      "outputs": [],
      "stateMutability": "nonpayable",
      "type": "function"
    },
    {
      "inputs": [
        {
          "internalType": "address",
          "name": "from",
          "type": "address"
        },
        {
          "internalType": "address",
          "name": "to",
          "type": "address"
        },
        {
          "internalType": "uint256",
          "name": "tokenId",
          "type": "uint256"
        }
      ],
      "name": "safeTransferFrom",
      "outputs": [],
      "stateMutability": "nonpayable",
      "type": "function"
    },
    {
      "inputs": [
        {
          "internalType": "address",
          "name": "from",
          "type": "address"
        },
        {
          "internalType": "address",
          "name": "to",
          "type": "address"
        },
        {
          "internalType": "uint256",
          "name": "tokenId",
          "type": "uint256"
        },
        {
          "internalType": "bytes",
          "name": "_data",
          "type": "bytes"
        }
      ],
      "name": "safeTransferFrom",
      "outputs": [],
      "stateMutability": "nonpayable",
      "type": "function"
    },
    {
      "inputs": [
        {
          "internalType": "address",
          "name": "operator",
          "type": "address"
        },
        {
          "internalType": "bool",
          "name": "approved",
          "type": "bool"
        }
      ],
      "name": "setApprovalForAll",
      "outputs": [],
      "stateMutability": "nonpayable",
      "type": "function"
    },
    {
      "inputs": [],
      "name": "symbol",
      "outputs": [
        {
          "internalType": "string",
          "name": "",
          "type": "string"
        }
      ],
      "stateMutability": "view",
      "type": "function"
    },
    {
      "inputs": [
        {
          "internalType": "uint256",
          "name": "index",
          "type": "uint256"
        }
      ],
      "name": "tokenByIndex",
      "outputs": [
        {
          "internalType": "uint256",
          "name": "",
          "type": "uint256"
        }
      ],
      "stateMutability": "view",
      "type": "function"
    },
    {
      "inputs": [
        {
          "internalType": "address",
          "name": "owner",
          "type": "address"
        },
        {
          "internalType": "uint256",
          "name": "index",
          "type": "uint256"
        }
      ],
      "name": "tokenOfOwnerByIndex",
      "outputs": [
        {
          "internalType": "uint256",
          "name": "",
          "type": "uint256"
        }
      ],
      "stateMutability": "view",
      "type": "function"
    },
    {
      "inputs": [],
      "name": "totalSupply",
      "outputs": [
        {
          "internalType": "uint256",
          "name": "",
          "type": "uint256"
        }
      ],
      "stateMutability": "view",
      "type": "function"
    },
    {
      "inputs": [
        {
          "internalType": "address",
          "name": "from",
          "type": "address"
        },
        {
          "internalType": "address",
          "name": "to",
          "type": "address"
        },
        {
          "internalType": "uint256",
          "name": "tokenId",
          "type": "uint256"
        }
      ],
      "name": "transferFrom",
      "outputs": [],
      "stateMutability": "nonpayable",
      "type": "function"
    },
    {
      "inputs": [
        {
          "internalType": "address",
          "name": "newOwner",
          "type": "address"
        }
      ],
      "name": "transferOwnership",
      "outputs": [],
      "stateMutability": "nonpayable",
      "type": "function"
    },
    {
      "inputs": [
        {
          "internalType": "address",
          "name": "_owner",
          "type": "address"
        }
      ],
      "name": "tokensOfOwner",
      "outputs": [
        {
          "internalType": "uint256[]",
          "name": "",
          "type": "uint256[]"
        }
      ],
      "stateMutability": "view",
      "type": "function"
    },
    {
      "inputs": [
        {
          "internalType": "string",
          "name": "baseURI_",
          "type": "string"
        }
      ],
      "name": "setBaseURI",
      "outputs": [],
      "stateMutability": "nonpayable",
      "type": "function"
    },
    {
      "inputs": [
        {
          "internalType": "uint16",
          "name": "_available",
          "type": "uint16"
        }
      ],
      "name": "setAvailability",
      "outputs": [],
      "stateMutability": "nonpayable",
      "type": "function"
    },
    {
      "inputs": [
        {
          "internalType": "uint256",
          "name": "numPunks",
          "type": "uint256"
        }
      ],
      "name": "buy",
      "outputs": [],
      "stateMutability": "payable",
      "type": "function"
    },
    {
      "inputs": [
        {
          "internalType": "address",
          "name": "_address",
          "type": "address"
        },
        {
          "internalType": "uint256",
          "name": "numPunks",
          "type": "uint256"
        }
      ],
      "name": "giveGift",
      "outputs": [],
      "stateMutability": "nonpayable",
      "type": "function"
    },
    {
      "inputs": [],
      "name": "startDrop",
      "outputs": [],
      "stateMutability": "nonpayable",
      "type": "function"
    },
    {
      "inputs": [],
      "name": "pauseDrop",
      "outputs": [],
      "stateMutability": "nonpayable",
      "type": "function"
    },
    {
      "inputs": [],
      "name": "withdraw",
      "outputs": [],
      "stateMutability": "payable",
      "type": "function"
    },
    {
      "inputs": [
        {
          "internalType": "uint256",
          "name": "_count",
          "type": "uint256"
        }
      ],
      "name": "getPrice",
      "outputs": [
        {
          "internalType": "uint256",
          "name": "",
          "type": "uint256"
        }
      ],
      "stateMutability": "view",
      "type": "function"
    },
    {
      "inputs": [
        {
          "internalType": "uint256",
          "name": "tokenId",
          "type": "uint256"
        }
      ],
      "name": "tokenURI",
      "outputs": [
        {
          "internalType": "string",
          "name": "",
          "type": "string"
        }
      ],
      "stateMutability": "view",
      "type": "function"
    },
    {
      "inputs": [
        {
          "internalType": "bytes4",
          "name": "interfaceId",
          "type": "bytes4"
        }
      ],
      "name": "supportsInterface",
      "outputs": [
        {
          "internalType": "bool",
          "name": "",
          "type": "bool"
        }
      ],
      "stateMutability": "view",
      "type": "function"
    }
  ],
  "bytecode": "0x60806040526001600b60006101000a81548160ff021916908315150217905550604051806060016040528060368152602001620048fa60369139600c908051906020019062000050929190620001f3565b503480156200005e57600080fd5b506040518060400160405280600f81526020017f476f50756e6b7353747564656e747300000000000000000000000000000000008152506040518060400160405280600381526020017f47505300000000000000000000000000000000000000000000000000000000008152508160009080519060200190620000e3929190620001f3565b508060019080519060200190620000fc929190620001f3565b5050506200011f620001136200012560201b60201c565b6200012d60201b60201c565b62000308565b600033905090565b6000600660009054906101000a900473ffffffffffffffffffffffffffffffffffffffff16905081600660006101000a81548173ffffffffffffffffffffffffffffffffffffffff021916908373ffffffffffffffffffffffffffffffffffffffff1602179055508173ffffffffffffffffffffffffffffffffffffffff168173ffffffffffffffffffffffffffffffffffffffff167f8be0079c531659141344cd1fd0a4f28419497f9722a3daafe3b4186f6b6457e060405160405180910390a35050565b8280546200020190620002d2565b90600052602060002090601f01602090048101928262000225576000855562000271565b82601f106200024057805160ff191683800117855562000271565b8280016001018555821562000271579182015b828111156200027057825182559160200191906001019062000253565b5b50905062000280919062000284565b5090565b5b808211156200029f57600081600090555060010162000285565b5090565b7f4e487b7100000000000000000000000000000000000000000000000000000000600052602260045260246000fd5b60006002820490506001821680620002eb57607f821691505b60208210811415620003025762000301620002a3565b5b50919050565b6145e280620003186000396000f3fe6080604052600436106101ee5760003560e01c806355f804b31161010d57806395d89b41116100a0578063d96a094a1161006f578063d96a094a146106cc578063e7572230146106e8578063e985e9c514610725578063f109eda414610762578063f2fde38b1461078b576101ee565b806395d89b4114610612578063a22cb4651461063d578063b88d4fde14610666578063c87b56dd1461068f576101ee565b806370a08231116100dc57806370a0823114610556578063715018a6146105935780638462151c146105aa5780638da5cb5b146105e7576101ee565b806355f804b31461049a57806357a5d38b146104c35780636352211e146104ee5780636c0360eb1461052b576101ee565b80632f745c591161018557806342842e0e1161015457806342842e0e146103e057806348a0d754146104095780634f6ccce7146104345780635433f23c14610471576101ee565b80632f745c591461035757806334d84c7b146103945780633ccfd60b146103ab5780633de68c16146103b5576101ee565b806318160ddd116101c157806318160ddd146102c15780631c8b232d146102ec57806323b872dd146103175780632808c92c14610340576101ee565b806301ffc9a7146101f357806306fdde0314610230578063081812fc1461025b578063095ea7b314610298575b600080fd5b3480156101ff57600080fd5b5061021a60048036038101906102159190612d46565b6107b4565b6040516102279190612d8e565b60405180910390f35b34801561023c57600080fd5b506102456107c6565b6040516102529190612e42565b60405180910390f35b34801561026757600080fd5b50610282600480360381019061027d9190612e9a565b610858565b60405161028f9190612f08565b60405180910390f35b3480156102a457600080fd5b506102bf60048036038101906102ba9190612f4f565b6108dd565b005b3480156102cd57600080fd5b506102d66109f5565b6040516102e39190612f9e565b60405180910390f35b3480156102f857600080fd5b50610301610a02565b60405161030e9190612d8e565b60405180910390f35b34801561032357600080fd5b5061033e60048036038101906103399190612fb9565b610a15565b005b34801561034c57600080fd5b50610355610a75565b005b34801561036357600080fd5b5061037e60048036038101906103799190612f4f565b610b0e565b60405161038b9190612f9e565b60405180910390f35b3480156103a057600080fd5b506103a9610bb3565b005b6103b3610c4c565b005b3480156103c157600080fd5b506103ca610d08565b6040516103d79190612f9e565b60405180910390f35b3480156103ec57600080fd5b5061040760048036038101906104029190612fb9565b610d13565b005b34801561041557600080fd5b5061041e610d33565b60405161042b9190613029565b60405180910390f35b34801561044057600080fd5b5061045b60048036038101906104569190612e9a565b610d47565b6040516104689190612f9e565b60405180910390f35b34801561047d57600080fd5b5061049860048036038101906104939190612f4f565b610db8565b005b3480156104a657600080fd5b506104c160048036038101906104bc9190613179565b610edc565b005b3480156104cf57600080fd5b506104d8610f72565b6040516104e59190612f9e565b60405180910390f35b3480156104fa57600080fd5b5061051560048036038101906105109190612e9a565b610f78565b6040516105229190612f08565b60405180910390f35b34801561053757600080fd5b5061054061102a565b60405161054d9190612e42565b60405180910390f35b34801561056257600080fd5b5061057d600480360381019061057891906131c2565b6110b8565b60405161058a9190612f9e565b60405180910390f35b34801561059f57600080fd5b506105a8611170565b005b3480156105b657600080fd5b506105d160048036038101906105cc91906131c2565b6111f8565b6040516105de91906132ad565b60405180910390f35b3480156105f357600080fd5b506105fc611302565b6040516106099190612f08565b60405180910390f35b34801561061e57600080fd5b5061062761132c565b6040516106349190612e42565b60405180910390f35b34801561064957600080fd5b50610664600480360381019061065f91906132fb565b6113be565b005b34801561067257600080fd5b5061068d600480360381019061068891906133dc565b6113d4565b005b34801561069b57600080fd5b506106b660048036038101906106b19190612e9a565b611436565b6040516106c39190612e42565b60405180910390f35b6106e660048036038101906106e19190612e9a565b6114dd565b005b3480156106f457600080fd5b5061070f600480360381019061070a9190612e9a565b6116ed565b60405161071c9190612f9e565b60405180910390f35b34801561073157600080fd5b5061074c6004803603810190610747919061345f565b611723565b6040516107599190612d8e565b60405180910390f35b34801561076e57600080fd5b50610789600480360381019061078491906134cb565b6117b7565b005b34801561079757600080fd5b506107b260048036038101906107ad91906131c2565b611853565b005b60006107bf8261194b565b9050919050565b6060600080546107d590613527565b80601f016020809104026020016040519081016040528092919081815260200182805461080190613527565b801561084e5780601f106108235761010080835404028352916020019161084e565b820191906000526020600020905b81548152906001019060200180831161083157829003601f168201915b5050505050905090565b6000610863826119c5565b6108a2576040517f08c379a0000000000000000000000000000000000000000000000000000000008152600401610899906135cb565b60405180910390fd5b6004600083815260200190815260200160002060009054906101000a900473ffffffffffffffffffffffffffffffffffffffff169050919050565b60006108e882610f78565b90508073ffffffffffffffffffffffffffffffffffffffff168373ffffffffffffffffffffffffffffffffffffffff161415610959576040517f08c379a00000000000000000000000000000000000000000000000000000000081526004016109509061365d565b60405180910390fd5b8073ffffffffffffffffffffffffffffffffffffffff16610978611a31565b73ffffffffffffffffffffffffffffffffffffffff1614806109a757506109a6816109a1611a31565b611723565b5b6109e6576040517f08c379a00000000000000000000000000000000000000000000000000000000081526004016109dd906136ef565b60405180910390fd5b6109f08383611a39565b505050565b6000600980549050905090565b600b60009054906101000a900460ff1681565b610a26610a20611a31565b82611af2565b610a65576040517f08c379a0000000000000000000000000000000000000000000000000000000008152600401610a5c90613781565b60405180910390fd5b610a70838383611bd0565b505050565b610a7d611a31565b73ffffffffffffffffffffffffffffffffffffffff16610a9b611302565b73ffffffffffffffffffffffffffffffffffffffff1614610af1576040517f08c379a0000000000000000000000000000000000000000000000000000000008152600401610ae8906137ed565b60405180910390fd5b6000600b60006101000a81548160ff021916908315150217905550565b6000610b19836110b8565b8210610b5a576040517f08c379a0000000000000000000000000000000000000000000000000000000008152600401610b519061387f565b60405180910390fd5b600760008473ffffffffffffffffffffffffffffffffffffffff1673ffffffffffffffffffffffffffffffffffffffff168152602001908152602001600020600083815260200190815260200160002054905092915050565b610bbb611a31565b73ffffffffffffffffffffffffffffffffffffffff16610bd9611302565b73ffffffffffffffffffffffffffffffffffffffff1614610c2f576040517f08c379a0000000000000000000000000000000000000000000000000000000008152600401610c26906137ed565b60405180910390fd5b6001600b60006101000a81548160ff021916908315150217905550565b610c54611a31565b73ffffffffffffffffffffffffffffffffffffffff16610c72611302565b73ffffffffffffffffffffffffffffffffffffffff1614610cc8576040517f08c379a0000000000000000000000000000000000000000000000000000000008152600401610cbf906137ed565b60405180910390fd5b3373ffffffffffffffffffffffffffffffffffffffff166108fc479081150290604051600060405180830381858888f19350505050610d0657600080fd5b565b662386f26fc1000081565b610d2e838383604051806020016040528060008152506113d4565b505050565b600d60009054906101000a900461ffff1681565b6000610d516109f5565b8210610d92576040517f08c379a0000000000000000000000000000000000000000000000000000000008152600401610d8990613911565b60405180910390fd5b60098281548110610da657610da5613931565b5b90600052602060002001549050919050565b610dc0611a31565b73ffffffffffffffffffffffffffffffffffffffff16610dde611302565b73ffffffffffffffffffffffffffffffffffffffff1614610e34576040517f08c379a0000000000000000000000000000000000000000000000000000000008152600401610e2b906137ed565b60405180910390fd5b6000610e3e6109f5565b905060f08110610e4d57600080fd5b60f082610e586109f5565b610e62919061398f565b1115610ea3576040517f08c379a0000000000000000000000000000000000000000000000000000000008152600401610e9a90613a31565b60405180910390fd5b60005b82811015610ed657610ec3848284610ebe919061398f565b611e37565b8080610ece90613a51565b915050610ea6565b50505050565b610ee4611a31565b73ffffffffffffffffffffffffffffffffffffffff16610f02611302565b73ffffffffffffffffffffffffffffffffffffffff1614610f58576040517f08c379a0000000000000000000000000000000000000000000000000000000008152600401610f4f906137ed565b60405180910390fd5b80600c9080519060200190610f6e929190612c37565b5050565b61083881565b6000806002600084815260200190815260200160002060009054906101000a900473ffffffffffffffffffffffffffffffffffffffff169050600073ffffffffffffffffffffffffffffffffffffffff168173ffffffffffffffffffffffffffffffffffffffff161415611021576040517f08c379a000000000000000000000000000000000000000000000000000000000815260040161101890613b0c565b60405180910390fd5b80915050919050565b600c805461103790613527565b80601f016020809104026020016040519081016040528092919081815260200182805461106390613527565b80156110b05780601f10611085576101008083540402835291602001916110b0565b820191906000526020600020905b81548152906001019060200180831161109357829003601f168201915b505050505081565b60008073ffffffffffffffffffffffffffffffffffffffff168273ffffffffffffffffffffffffffffffffffffffff161415611129576040517f08c379a000000000000000000000000000000000000000000000000000000000815260040161112090613b9e565b60405180910390fd5b600360008373ffffffffffffffffffffffffffffffffffffffff1673ffffffffffffffffffffffffffffffffffffffff168152602001908152602001600020549050919050565b611178611a31565b73ffffffffffffffffffffffffffffffffffffffff16611196611302565b73ffffffffffffffffffffffffffffffffffffffff16146111ec576040517f08c379a00000000000000000000000000000000000000000000000000000000081526004016111e3906137ed565b60405180910390fd5b6111f66000611e55565b565b60606000611205836110b8565b9050600081141561126257600067ffffffffffffffff81111561122b5761122a61304e565b5b6040519080825280602002602001820160405280156112595781602001602082028036833780820191505090505b509150506112fd565b60008167ffffffffffffffff81111561127e5761127d61304e565b5b6040519080825280602002602001820160405280156112ac5781602001602082028036833780820191505090505b50905060005b828110156112f6576112c48582610b0e565b8282815181106112d7576112d6613931565b5b60200260200101818152505080806112ee90613a51565b9150506112b2565b8193505050505b919050565b6000600660009054906101000a900473ffffffffffffffffffffffffffffffffffffffff16905090565b60606001805461133b90613527565b80601f016020809104026020016040519081016040528092919081815260200182805461136790613527565b80156113b45780601f10611389576101008083540402835291602001916113b4565b820191906000526020600020905b81548152906001019060200180831161139757829003601f168201915b5050505050905090565b6113d06113c9611a31565b8383611f1b565b5050565b6113e56113df611a31565b83611af2565b611424576040517f08c379a000000000000000000000000000000000000000000000000000000000815260040161141b90613781565b60405180910390fd5b61143084848484612088565b50505050565b6060611441826119c5565b611480576040517f08c379a000000000000000000000000000000000000000000000000000000000815260040161147790613c30565b60405180910390fd5b600061148a6120e4565b905060008151116114aa57604051806020016040528060008152506114d5565b806114b484612176565b6040516020016114c5929190613cd8565b6040516020818303038152906040525b915050919050565b6001600d60009054906101000a900461ffff1661ffff161015611535576040517f08c379a000000000000000000000000000000000000000000000000000000000815260040161152c90613d79565b60405180910390fd5b6108386115406109f5565b10611580576040517f08c379a000000000000000000000000000000000000000000000000000000000815260040161157790613de5565b60405180910390fd5b600081118015611591575060028111155b6115d0576040517f08c379a00000000000000000000000000000000000000000000000000000000081526004016115c790613e77565b60405180910390fd5b610838816115dc6109f5565b6115e6919061398f565b1115611627576040517f08c379a000000000000000000000000000000000000000000000000000000000815260040161161e90613a31565b60405180910390fd5b80662386f26fc1000061163a9190613e97565b34101561167c576040517f08c379a000000000000000000000000000000000000000000000000000000000815260040161167390613f63565b60405180910390fd5b80600d60009054906101000a900461ffff166116989190613f83565b600d60006101000a81548161ffff021916908361ffff16021790555060005b818110156116e95760006116c96109f5565b90506116d53382611e37565b5080806116e190613a51565b9150506116b7565b5050565b600080600090506108386116ff6109f5565b1161171a5782662386f26fc100006117179190613e97565b90505b80915050919050565b6000600560008473ffffffffffffffffffffffffffffffffffffffff1673ffffffffffffffffffffffffffffffffffffffff16815260200190815260200160002060008373ffffffffffffffffffffffffffffffffffffffff1673ffffffffffffffffffffffffffffffffffffffff16815260200190815260200160002060009054906101000a900460ff16905092915050565b6117bf611a31565b73ffffffffffffffffffffffffffffffffffffffff166117dd611302565b73ffffffffffffffffffffffffffffffffffffffff1614611833576040517f08c379a000000000000000000000000000000000000000000000000000000000815260040161182a906137ed565b60405180910390fd5b80600d60006101000a81548161ffff021916908361ffff16021790555050565b61185b611a31565b73ffffffffffffffffffffffffffffffffffffffff16611879611302565b73ffffffffffffffffffffffffffffffffffffffff16146118cf576040517f08c379a00000000000000000000000000000000000000000000000000000000081526004016118c6906137ed565b60405180910390fd5b600073ffffffffffffffffffffffffffffffffffffffff168173ffffffffffffffffffffffffffffffffffffffff16141561193f576040517f08c379a000000000000000000000000000000000000000000000000000000000815260040161193690614029565b60405180910390fd5b61194881611e55565b50565b60007f780e9d63000000000000000000000000000000000000000000000000000000007bffffffffffffffffffffffffffffffffffffffffffffffffffffffff1916827bffffffffffffffffffffffffffffffffffffffffffffffffffffffff191614806119be57506119bd826122d7565b5b9050919050565b60008073ffffffffffffffffffffffffffffffffffffffff166002600084815260200190815260200160002060009054906101000a900473ffffffffffffffffffffffffffffffffffffffff1673ffffffffffffffffffffffffffffffffffffffff1614159050919050565b600033905090565b816004600083815260200190815260200160002060006101000a81548173ffffffffffffffffffffffffffffffffffffffff021916908373ffffffffffffffffffffffffffffffffffffffff160217905550808273ffffffffffffffffffffffffffffffffffffffff16611aac83610f78565b73ffffffffffffffffffffffffffffffffffffffff167f8c5be1e5ebec7d5bd14f71427d1e84f3dd0314c0f7b2291e5b200ac8c7c3b92560405160405180910390a45050565b6000611afd826119c5565b611b3c576040517f08c379a0000000000000000000000000000000000000000000000000000000008152600401611b33906140bb565b60405180910390fd5b6000611b4783610f78565b90508073ffffffffffffffffffffffffffffffffffffffff168473ffffffffffffffffffffffffffffffffffffffff161480611bb657508373ffffffffffffffffffffffffffffffffffffffff16611b9e84610858565b73ffffffffffffffffffffffffffffffffffffffff16145b80611bc75750611bc68185611723565b5b91505092915050565b8273ffffffffffffffffffffffffffffffffffffffff16611bf082610f78565b73ffffffffffffffffffffffffffffffffffffffff1614611c46576040517f08c379a0000000000000000000000000000000000000000000000000000000008152600401611c3d9061414d565b60405180910390fd5b600073ffffffffffffffffffffffffffffffffffffffff168273ffffffffffffffffffffffffffffffffffffffff161415611cb6576040517f08c379a0000000000000000000000000000000000000000000000000000000008152600401611cad906141df565b60405180910390fd5b611cc18383836123b9565b611ccc600082611a39565b6001600360008573ffffffffffffffffffffffffffffffffffffffff1673ffffffffffffffffffffffffffffffffffffffff1681526020019081526020016000206000828254611d1c91906141ff565b925050819055506001600360008473ffffffffffffffffffffffffffffffffffffffff1673ffffffffffffffffffffffffffffffffffffffff1681526020019081526020016000206000828254611d73919061398f565b92505081905550816002600083815260200190815260200160002060006101000a81548173ffffffffffffffffffffffffffffffffffffffff021916908373ffffffffffffffffffffffffffffffffffffffff160217905550808273ffffffffffffffffffffffffffffffffffffffff168473ffffffffffffffffffffffffffffffffffffffff167fddf252ad1be2c89b69c2b068fc378daa952ba7f163c4a11628f55a4df523b3ef60405160405180910390a4611e328383836123c9565b505050565b611e518282604051806020016040528060008152506123ce565b5050565b6000600660009054906101000a900473ffffffffffffffffffffffffffffffffffffffff16905081600660006101000a81548173ffffffffffffffffffffffffffffffffffffffff021916908373ffffffffffffffffffffffffffffffffffffffff1602179055508173ffffffffffffffffffffffffffffffffffffffff168173ffffffffffffffffffffffffffffffffffffffff167f8be0079c531659141344cd1fd0a4f28419497f9722a3daafe3b4186f6b6457e060405160405180910390a35050565b8173ffffffffffffffffffffffffffffffffffffffff168373ffffffffffffffffffffffffffffffffffffffff161415611f8a576040517f08c379a0000000000000000000000000000000000000000000000000000000008152600401611f819061427f565b60405180910390fd5b80600560008573ffffffffffffffffffffffffffffffffffffffff1673ffffffffffffffffffffffffffffffffffffffff16815260200190815260200160002060008473ffffffffffffffffffffffffffffffffffffffff1673ffffffffffffffffffffffffffffffffffffffff16815260200190815260200160002060006101000a81548160ff0219169083151502179055508173ffffffffffffffffffffffffffffffffffffffff168373ffffffffffffffffffffffffffffffffffffffff167f17307eab39ab6107e8899845ad3d59bd9653f200f220920489ca2b5937696c318360405161207b9190612d8e565b60405180910390a3505050565b612093848484611bd0565b61209f84848484612429565b6120de576040517f08c379a00000000000000000000000000000000000000000000000000000000081526004016120d590614311565b60405180910390fd5b50505050565b6060600c80546120f390613527565b80601f016020809104026020016040519081016040528092919081815260200182805461211f90613527565b801561216c5780601f106121415761010080835404028352916020019161216c565b820191906000526020600020905b81548152906001019060200180831161214f57829003601f168201915b5050505050905090565b606060008214156121be576040518060400160405280600181526020017f300000000000000000000000000000000000000000000000000000000000000081525090506122d2565b600082905060005b600082146121f05780806121d990613a51565b915050600a826121e99190614360565b91506121c6565b60008167ffffffffffffffff81111561220c5761220b61304e565b5b6040519080825280601f01601f19166020018201604052801561223e5781602001600182028036833780820191505090505b5090505b600085146122cb5760018261225791906141ff565b9150600a856122669190614391565b6030612272919061398f565b60f81b81838151811061228857612287613931565b5b60200101907effffffffffffffffffffffffffffffffffffffffffffffffffffffffffffff1916908160001a905350600a856122c49190614360565b9450612242565b8093505050505b919050565b60007f80ac58cd000000000000000000000000000000000000000000000000000000007bffffffffffffffffffffffffffffffffffffffffffffffffffffffff1916827bffffffffffffffffffffffffffffffffffffffffffffffffffffffff191614806123a257507f5b5e139f000000000000000000000000000000000000000000000000000000007bffffffffffffffffffffffffffffffffffffffffffffffffffffffff1916827bffffffffffffffffffffffffffffffffffffffffffffffffffffffff1916145b806123b257506123b1826125b1565b5b9050919050565b6123c483838361261b565b505050565b505050565b6123d8838361272f565b6123e56000848484612429565b612424576040517f08c379a000000000000000000000000000000000000000000000000000000000815260040161241b90614311565b60405180910390fd5b505050565b600061244a8473ffffffffffffffffffffffffffffffffffffffff16612909565b156125a4578373ffffffffffffffffffffffffffffffffffffffff1663150b7a02612473611a31565b8786866040518563ffffffff1660e01b81526004016124959493929190614417565b6020604051808303816000875af19250505080156124d157506040513d601f19601f820116820180604052508101906124ce9190614478565b60015b612554573d8060008114612501576040519150601f19603f3d011682016040523d82523d6000602084013e612506565b606091505b5060008151141561254c576040517f08c379a000000000000000000000000000000000000000000000000000000000815260040161254390614311565b60405180910390fd5b805181602001fd5b63150b7a0260e01b7bffffffffffffffffffffffffffffffffffffffffffffffffffffffff1916817bffffffffffffffffffffffffffffffffffffffffffffffffffffffff1916149150506125a9565b600190505b949350505050565b60007f01ffc9a7000000000000000000000000000000000000000000000000000000007bffffffffffffffffffffffffffffffffffffffffffffffffffffffff1916827bffffffffffffffffffffffffffffffffffffffffffffffffffffffff1916149050919050565b61262683838361292c565b600073ffffffffffffffffffffffffffffffffffffffff168373ffffffffffffffffffffffffffffffffffffffff1614156126695761266481612931565b6126a8565b8173ffffffffffffffffffffffffffffffffffffffff168373ffffffffffffffffffffffffffffffffffffffff16146126a7576126a6838261297a565b5b5b600073ffffffffffffffffffffffffffffffffffffffff168273ffffffffffffffffffffffffffffffffffffffff1614156126eb576126e681612ae7565b61272a565b8273ffffffffffffffffffffffffffffffffffffffff168273ffffffffffffffffffffffffffffffffffffffff1614612729576127288282612bb8565b5b5b505050565b600073ffffffffffffffffffffffffffffffffffffffff168273ffffffffffffffffffffffffffffffffffffffff16141561279f576040517f08c379a0000000000000000000000000000000000000000000000000000000008152600401612796906144f1565b60405180910390fd5b6127a8816119c5565b156127e8576040517f08c379a00000000000000000000000000000000000000000000000000000000081526004016127df9061455d565b60405180910390fd5b6127f4600083836123b9565b6001600360008473ffffffffffffffffffffffffffffffffffffffff1673ffffffffffffffffffffffffffffffffffffffff1681526020019081526020016000206000828254612844919061398f565b92505081905550816002600083815260200190815260200160002060006101000a81548173ffffffffffffffffffffffffffffffffffffffff021916908373ffffffffffffffffffffffffffffffffffffffff160217905550808273ffffffffffffffffffffffffffffffffffffffff16600073ffffffffffffffffffffffffffffffffffffffff167fddf252ad1be2c89b69c2b068fc378daa952ba7f163c4a11628f55a4df523b3ef60405160405180910390a4612905600083836123c9565b5050565b6000808273ffffffffffffffffffffffffffffffffffffffff163b119050919050565b505050565b600980549050600a600083815260200190815260200160002081905550600981908060018154018082558091505060019003906000526020600020016000909190919091505550565b60006001612987846110b8565b61299191906141ff565b9050600060086000848152602001908152602001600020549050818114612a76576000600760008673ffffffffffffffffffffffffffffffffffffffff1673ffffffffffffffffffffffffffffffffffffffff168152602001908152602001600020600084815260200190815260200160002054905080600760008773ffffffffffffffffffffffffffffffffffffffff1673ffffffffffffffffffffffffffffffffffffffff168152602001908152602001600020600084815260200190815260200160002081905550816008600083815260200190815260200160002081905550505b6008600084815260200190815260200160002060009055600760008573ffffffffffffffffffffffffffffffffffffffff1673ffffffffffffffffffffffffffffffffffffffff16815260200190815260200160002060008381526020019081526020016000206000905550505050565b60006001600980549050612afb91906141ff565b90506000600a6000848152602001908152602001600020549050600060098381548110612b2b57612b2a613931565b5b906000526020600020015490508060098381548110612b4d57612b4c613931565b5b906000526020600020018190555081600a600083815260200190815260200160002081905550600a6000858152602001908152602001600020600090556009805480612b9c57612b9b61457d565b5b6001900381819060005260206000200160009055905550505050565b6000612bc3836110b8565b905081600760008573ffffffffffffffffffffffffffffffffffffffff1673ffffffffffffffffffffffffffffffffffffffff168152602001908152602001600020600083815260200190815260200160002081905550806008600084815260200190815260200160002081905550505050565b828054612c4390613527565b90600052602060002090601f016020900481019282612c655760008555612cac565b82601f10612c7e57805160ff1916838001178555612cac565b82800160010185558215612cac579182015b82811115612cab578251825591602001919060010190612c90565b5b509050612cb99190612cbd565b5090565b5b80821115612cd6576000816000905550600101612cbe565b5090565b6000604051905090565b600080fd5b600080fd5b60007fffffffff0000000000000000000000000000000000000000000000000000000082169050919050565b612d2381612cee565b8114612d2e57600080fd5b50565b600081359050612d4081612d1a565b92915050565b600060208284031215612d5c57612d5b612ce4565b5b6000612d6a84828501612d31565b91505092915050565b60008115159050919050565b612d8881612d73565b82525050565b6000602082019050612da36000830184612d7f565b92915050565b600081519050919050565b600082825260208201905092915050565b60005b83811015612de3578082015181840152602081019050612dc8565b83811115612df2576000848401525b50505050565b6000601f19601f8301169050919050565b6000612e1482612da9565b612e1e8185612db4565b9350612e2e818560208601612dc5565b612e3781612df8565b840191505092915050565b60006020820190508181036000830152612e5c8184612e09565b905092915050565b6000819050919050565b612e7781612e64565b8114612e8257600080fd5b50565b600081359050612e9481612e6e565b92915050565b600060208284031215612eb057612eaf612ce4565b5b6000612ebe84828501612e85565b91505092915050565b600073ffffffffffffffffffffffffffffffffffffffff82169050919050565b6000612ef282612ec7565b9050919050565b612f0281612ee7565b82525050565b6000602082019050612f1d6000830184612ef9565b92915050565b612f2c81612ee7565b8114612f3757600080fd5b50565b600081359050612f4981612f23565b92915050565b60008060408385031215612f6657612f65612ce4565b5b6000612f7485828601612f3a565b9250506020612f8585828601612e85565b9150509250929050565b612f9881612e64565b82525050565b6000602082019050612fb36000830184612f8f565b92915050565b600080600060608486031215612fd257612fd1612ce4565b5b6000612fe086828701612f3a565b9350506020612ff186828701612f3a565b925050604061300286828701612e85565b9150509250925092565b600061ffff82169050919050565b6130238161300c565b82525050565b600060208201905061303e600083018461301a565b92915050565b600080fd5b600080fd5b7f4e487b7100000000000000000000000000000000000000000000000000000000600052604160045260246000fd5b61308682612df8565b810181811067ffffffffffffffff821117156130a5576130a461304e565b5b80604052505050565b60006130b8612cda565b90506130c4828261307d565b919050565b600067ffffffffffffffff8211156130e4576130e361304e565b5b6130ed82612df8565b9050602081019050919050565b82818337600083830152505050565b600061311c613117846130c9565b6130ae565b90508281526020810184848401111561313857613137613049565b5b6131438482856130fa565b509392505050565b600082601f8301126131605761315f613044565b5b8135613170848260208601613109565b91505092915050565b60006020828403121561318f5761318e612ce4565b5b600082013567ffffffffffffffff8111156131ad576131ac612ce9565b5b6131b98482850161314b565b91505092915050565b6000602082840312156131d8576131d7612ce4565b5b60006131e684828501612f3a565b91505092915050565b600081519050919050565b600082825260208201905092915050565b6000819050602082019050919050565b61322481612e64565b82525050565b6000613236838361321b565b60208301905092915050565b6000602082019050919050565b600061325a826131ef565b61326481856131fa565b935061326f8361320b565b8060005b838110156132a0578151613287888261322a565b975061329283613242565b925050600181019050613273565b5085935050505092915050565b600060208201905081810360008301526132c7818461324f565b905092915050565b6132d881612d73565b81146132e357600080fd5b50565b6000813590506132f5816132cf565b92915050565b6000806040838503121561331257613311612ce4565b5b600061332085828601612f3a565b9250506020613331858286016132e6565b9150509250929050565b600067ffffffffffffffff8211156133565761335561304e565b5b61335f82612df8565b9050602081019050919050565b600061337f61337a8461333b565b6130ae565b90508281526020810184848401111561339b5761339a613049565b5b6133a68482856130fa565b509392505050565b600082601f8301126133c3576133c2613044565b5b81356133d384826020860161336c565b91505092915050565b600080600080608085870312156133f6576133f5612ce4565b5b600061340487828801612f3a565b945050602061341587828801612f3a565b935050604061342687828801612e85565b925050606085013567ffffffffffffffff81111561344757613446612ce9565b5b613453878288016133ae565b91505092959194509250565b6000806040838503121561347657613475612ce4565b5b600061348485828601612f3a565b925050602061349585828601612f3a565b9150509250929050565b6134a88161300c565b81146134b357600080fd5b50565b6000813590506134c58161349f565b92915050565b6000602082840312156134e1576134e0612ce4565b5b60006134ef848285016134b6565b91505092915050565b7f4e487b7100000000000000000000000000000000000000000000000000000000600052602260045260246000fd5b6000600282049050600182168061353f57607f821691505b60208210811415613553576135526134f8565b5b50919050565b7f4552433732313a20617070726f76656420717565727920666f72206e6f6e657860008201527f697374656e7420746f6b656e0000000000000000000000000000000000000000602082015250565b60006135b5602c83612db4565b91506135c082613559565b604082019050919050565b600060208201905081810360008301526135e4816135a8565b9050919050565b7f4552433732313a20617070726f76616c20746f2063757272656e74206f776e6560008201527f7200000000000000000000000000000000000000000000000000000000000000602082015250565b6000613647602183612db4565b9150613652826135eb565b604082019050919050565b600060208201905081810360008301526136768161363a565b9050919050565b7f4552433732313a20617070726f76652063616c6c6572206973206e6f74206f7760008201527f6e6572206e6f7220617070726f76656420666f7220616c6c0000000000000000602082015250565b60006136d9603883612db4565b91506136e48261367d565b604082019050919050565b60006020820190508181036000830152613708816136cc565b9050919050565b7f4552433732313a207472616e736665722063616c6c6572206973206e6f74206f60008201527f776e6572206e6f7220617070726f766564000000000000000000000000000000602082015250565b600061376b603183612db4565b91506137768261370f565b604082019050919050565b6000602082019050818103600083015261379a8161375e565b9050919050565b7f4f776e61626c653a2063616c6c6572206973206e6f7420746865206f776e6572600082015250565b60006137d7602083612db4565b91506137e2826137a1565b602082019050919050565b60006020820190508181036000830152613806816137ca565b9050919050565b7f455243373231456e756d657261626c653a206f776e657220696e646578206f7560008201527f74206f6620626f756e6473000000000000000000000000000000000000000000602082015250565b6000613869602b83612db4565b91506138748261380d565b604082019050919050565b600060208201905081810360008301526138988161385c565b9050919050565b7f455243373231456e756d657261626c653a20676c6f62616c20696e646578206f60008201527f7574206f6620626f756e64730000000000000000000000000000000000000000602082015250565b60006138fb602c83612db4565b91506139068261389f565b604082019050919050565b6000602082019050818103600083015261392a816138ee565b9050919050565b7f4e487b7100000000000000000000000000000000000000000000000000000000600052603260045260246000fd5b7f4e487b7100000000000000000000000000000000000000000000000000000000600052601160045260246000fd5b600061399a82612e64565b91506139a583612e64565b9250827fffffffffffffffffffffffffffffffffffffffffffffffffffffffffffffffff038211156139da576139d9613960565b5b828201905092915050565b7f45786365656473204d41585f50554e4b5353545544454e545300000000000000600082015250565b6000613a1b601983612db4565b9150613a26826139e5565b602082019050919050565b60006020820190508181036000830152613a4a81613a0e565b9050919050565b6000613a5c82612e64565b91507fffffffffffffffffffffffffffffffffffffffffffffffffffffffffffffffff821415613a8f57613a8e613960565b5b600182019050919050565b7f4552433732313a206f776e657220717565727920666f72206e6f6e657869737460008201527f656e7420746f6b656e0000000000000000000000000000000000000000000000602082015250565b6000613af6602983612db4565b9150613b0182613a9a565b604082019050919050565b60006020820190508181036000830152613b2581613ae9565b9050919050565b7f4552433732313a2062616c616e636520717565727920666f7220746865207a6560008201527f726f206164647265737300000000000000000000000000000000000000000000602082015250565b6000613b88602a83612db4565b9150613b9382613b2c565b604082019050919050565b60006020820190508181036000830152613bb781613b7b565b9050919050565b7f4552433732314d657461646174613a2055524920717565727920666f72206e6f60008201527f6e6578697374656e7420746f6b656e0000000000000000000000000000000000602082015250565b6000613c1a602f83612db4565b9150613c2582613bbe565b604082019050919050565b60006020820190508181036000830152613c4981613c0d565b9050919050565b600081905092915050565b6000613c6682612da9565b613c708185613c50565b9350613c80818560208601612dc5565b80840191505092915050565b7f2e6a736f6e000000000000000000000000000000000000000000000000000000600082015250565b6000613cc2600583613c50565b9150613ccd82613c8c565b600582019050919050565b6000613ce48285613c5b565b9150613cf08284613c5b565b9150613cfb82613cb5565b91508190509392505050565b7f546865726520617265206e6f206d6f7265204e46547320617661696c61626c6560008201527f2e00000000000000000000000000000000000000000000000000000000000000602082015250565b6000613d63602183612db4565b9150613d6e82613d07565b604082019050919050565b60006020820190508181036000830152613d9281613d56565b9050919050565b7f53616c652068617320616c726561647920656e64656400000000000000000000600082015250565b6000613dcf601683612db4565b9150613dda82613d99565b602082019050919050565b60006020820190508181036000830152613dfe81613dc2565b9050919050565b7f596f752063616e2061646f7074206d696e696d756d20312c206d6178696d756d60008201527f20322050756e6b732053747564656e7473204742430000000000000000000000602082015250565b6000613e61603583612db4565b9150613e6c82613e05565b604082019050919050565b60006020820190508181036000830152613e9081613e54565b9050919050565b6000613ea282612e64565b9150613ead83612e64565b9250817fffffffffffffffffffffffffffffffffffffffffffffffffffffffffffffffff0483118215151615613ee657613ee5613960565b5b828202905092915050565b7f45746865722076616c75652073656e742069732062656c6f772074686520707260008201527f6963650000000000000000000000000000000000000000000000000000000000602082015250565b6000613f4d602383612db4565b9150613f5882613ef1565b604082019050919050565b60006020820190508181036000830152613f7c81613f40565b9050919050565b6000613f8e8261300c565b9150613f998361300c565b925082821015613fac57613fab613960565b5b828203905092915050565b7f4f776e61626c653a206e6577206f776e657220697320746865207a65726f206160008201527f6464726573730000000000000000000000000000000000000000000000000000602082015250565b6000614013602683612db4565b915061401e82613fb7565b604082019050919050565b6000602082019050818103600083015261404281614006565b9050919050565b7f4552433732313a206f70657261746f7220717565727920666f72206e6f6e657860008201527f697374656e7420746f6b656e0000000000000000000000000000000000000000602082015250565b60006140a5602c83612db4565b91506140b082614049565b604082019050919050565b600060208201905081810360008301526140d481614098565b9050919050565b7f4552433732313a207472616e736665722066726f6d20696e636f72726563742060008201527f6f776e6572000000000000000000000000000000000000000000000000000000602082015250565b6000614137602583612db4565b9150614142826140db565b604082019050919050565b600060208201905081810360008301526141668161412a565b9050919050565b7f4552433732313a207472616e7366657220746f20746865207a65726f2061646460008201527f7265737300000000000000000000000000000000000000000000000000000000602082015250565b60006141c9602483612db4565b91506141d48261416d565b604082019050919050565b600060208201905081810360008301526141f8816141bc565b9050919050565b600061420a82612e64565b915061421583612e64565b92508282101561422857614227613960565b5b828203905092915050565b7f4552433732313a20617070726f766520746f2063616c6c657200000000000000600082015250565b6000614269601983612db4565b915061427482614233565b602082019050919050565b600060208201905081810360008301526142988161425c565b9050919050565b7f4552433732313a207472616e7366657220746f206e6f6e20455243373231526560008201527f63656976657220696d706c656d656e7465720000000000000000000000000000602082015250565b60006142fb603283612db4565b91506143068261429f565b604082019050919050565b6000602082019050818103600083015261432a816142ee565b9050919050565b7f4e487b7100000000000000000000000000000000000000000000000000000000600052601260045260246000fd5b600061436b82612e64565b915061437683612e64565b92508261438657614385614331565b5b828204905092915050565b600061439c82612e64565b91506143a783612e64565b9250826143b7576143b6614331565b5b828206905092915050565b600081519050919050565b600082825260208201905092915050565b60006143e9826143c2565b6143f381856143cd565b9350614403818560208601612dc5565b61440c81612df8565b840191505092915050565b600060808201905061442c6000830187612ef9565b6144396020830186612ef9565b6144466040830185612f8f565b818103606083015261445881846143de565b905095945050505050565b60008151905061447281612d1a565b92915050565b60006020828403121561448e5761448d612ce4565b5b600061449c84828501614463565b91505092915050565b7f4552433732313a206d696e7420746f20746865207a65726f2061646472657373600082015250565b60006144db602083612db4565b91506144e6826144a5565b602082019050919050565b6000602082019050818103600083015261450a816144ce565b9050919050565b7f4552433732313a20746f6b656e20616c7265616479206d696e74656400000000600082015250565b6000614547601c83612db4565b915061455282614511565b602082019050919050565b600060208201905081810360008301526145768161453a565b9050919050565b7f4e487b7100000000000000000000000000000000000000000000000000000000600052603160045260246000fdfea26469706673582212205fbf1a04e69de11f366ce2263d54356134fae5165ad904ca56fc0f43d9a588b864736f6c634300080b0033697066733a2f2f516d6232435954565433464675723653373233656e63564b6b4a567359324b3978526b466e366d5450746e794b652f",
  "immutableReferences": {},
  "source": "// SPDX-License-Identifier: GPL-3.0\n\npragma solidity ^0.8.0;\n\nimport \"@openzeppelin/contracts/token/ERC721/ERC721.sol\";\nimport \"@openzeppelin/contracts/token/ERC721/extensions/ERC721Enumerable.sol\";\nimport \"@openzeppelin/contracts/access/Ownable.sol\";\nimport \"@openzeppelin/contracts/utils/Strings.sol\";\n\ncontract GoPunksStudents is ERC721, Ownable, ERC721Enumerable {\n    using Strings for uint256;\n    uint256 public constant MAX_PUNKSSTUDENTS = 2104;\n    bool public hasSaleStarted = true;\n    uint256 public constant PUNKSSTUDENTS_PRICE = 10000000000000000;\n    string public baseURI = \"ipfs://Qmb2CYTVT3FFur6S723encVKkJVsY2K9xRkFn6mTPtnyKe/\";\n    uint16 public available;\n\n    constructor() ERC721(\"GoPunksStudents\", \"GPS\"){\n    }\n\n    function tokensOfOwner(address _owner)\n        external\n        view\n        returns (uint256[] memory)\n    {\n        uint256 tokenCount = balanceOf(_owner);\n        if (tokenCount == 0) {\n            // Return an empty array\n            return new uint256[](0);\n        } else {\n            uint256[] memory result = new uint256[](tokenCount);\n            uint256 index;\n            for (index = 0; index < tokenCount; index++) {\n                result[index] = tokenOfOwnerByIndex(_owner, index);\n            }\n            return result;\n        }\n    }\n\n    function setBaseURI(string memory baseURI_) external onlyOwner {\n        baseURI = baseURI_;\n    }\n\n    function setAvailability(uint16 _available) public onlyOwner {\n        available = _available;\n    }\n\n    function buy(uint256 numPunks) public payable {\n        require(available >= 1, \"There are no more NFTs available.\");\n        require(totalSupply() < MAX_PUNKSSTUDENTS, \"Sale has already ended\");\n        require(\n            numPunks > 0 && numPunks <= 2,\n            \"You can adopt minimum 1, maximum 2 Punks Students GBC\"\n        );\n        require(\n            totalSupply() + (numPunks) <= MAX_PUNKSSTUDENTS,\n            \"Exceeds MAX_PUNKSSTUDENTS\"\n        );\n        require(\n            msg.value >= PUNKSSTUDENTS_PRICE * (numPunks),\n            \"Ether value sent is below the price\"\n        );\n\n        available = available - uint16(numPunks);\n\n        for (uint256 i = 0; i < numPunks; i++) {\n            uint256 mintIndex = totalSupply();\n            _safeMint(msg.sender, mintIndex);\n        }\n    }\n\n    function giveGift(address _address, uint256 numPunks) public onlyOwner {\n        uint256 mintIndex = totalSupply();\n        require(mintIndex < 240);\n        require(\n            totalSupply() + (numPunks) <= 240,\n            \"Exceeds MAX_PUNKSSTUDENTS\"\n        );\n        for (uint256 i = 0; i < numPunks; i++) {\n            _safeMint(_address, mintIndex + i);\n        }\n    }\n\n    function startDrop() public onlyOwner {\n        hasSaleStarted = true;\n    }\n\n    function pauseDrop() public onlyOwner {\n        hasSaleStarted = false;\n    }\n\n    function withdraw() public payable onlyOwner {\n        require(payable(msg.sender).send(address(this).balance));\n    }\n\n    function _beforeTokenTransfer(address from, address to, uint256 tokenId)\n        internal\n        override(ERC721, ERC721Enumerable)\n    {\n        super._beforeTokenTransfer(from, to, tokenId);\n    }\n\n    function getPrice(uint256 _count) public view returns (uint256) {\n        uint256 returnVal = 0;\n        if (totalSupply() <= MAX_PUNKSSTUDENTS) {\n            returnVal = PUNKSSTUDENTS_PRICE * _count; // 0.01 ETH\n        }\n\n        return returnVal;\n    }\n\n\n    function tokenURI(uint256 tokenId) public view virtual override returns (string memory) {\n        require(_exists(tokenId), \"ERC721Metadata: URI query for nonexistent token\");\n\n        string memory baseURI = _baseURI();\n        return bytes(baseURI).length > 0 ? string(abi.encodePacked(baseURI, tokenId.toString(), \".json\")) : \"\";\n    }\n\n    \n    function _baseURI() internal view override returns (string memory) {\n        return baseURI;\n    }\n\n    function supportsInterface(bytes4 interfaceId)\n        public\n        view\n        override(ERC721, ERC721Enumerable)\n        returns (bool)\n    {\n        return super.supportsInterface(interfaceId);\n    }\n\n    \n\n}\n\n// cloned by United CryptoPunks Smart Contract \"United Punks Union\"\n// Punks not dead!\n// Special thanks to @berkozdemir @mmtiglioglu @caiosapy\n// goBlockchain\n\n",
  "sourcePath": "/home/caiosa/testing/nft-sun-app2/nft-sun-contract/contracts/GoPunksStudents.sol",
  "compiler": {
    "name": "solc",
    "version": "0.8.11+commit.d7f03943.Emscripten.clang"
  },
  "schemaVersion": "3.4.4",
  "updatedAt": "2022-02-14T18:55:00.008Z",
  "devdoc": {
    "kind": "dev",
    "methods": {
      "approve(address,uint256)": {
        "details": "See {IERC721-approve}."
      },
      "balanceOf(address)": {
        "details": "See {IERC721-balanceOf}."
      },
      "getApproved(uint256)": {
        "details": "See {IERC721-getApproved}."
      },
      "isApprovedForAll(address,address)": {
        "details": "See {IERC721-isApprovedForAll}."
      },
      "name()": {
        "details": "See {IERC721Metadata-name}."
      },
      "owner()": {
        "details": "Returns the address of the current owner."
      },
      "ownerOf(uint256)": {
        "details": "See {IERC721-ownerOf}."
      },
      "renounceOwnership()": {
        "details": "Leaves the contract without owner. It will not be possible to call `onlyOwner` functions anymore. Can only be called by the current owner. NOTE: Renouncing ownership will leave the contract without an owner, thereby removing any functionality that is only available to the owner."
      },
      "safeTransferFrom(address,address,uint256)": {
        "details": "See {IERC721-safeTransferFrom}."
      },
      "safeTransferFrom(address,address,uint256,bytes)": {
        "details": "See {IERC721-safeTransferFrom}."
      },
      "setApprovalForAll(address,bool)": {
        "details": "See {IERC721-setApprovalForAll}."
      },
      "symbol()": {
        "details": "See {IERC721Metadata-symbol}."
      },
      "tokenByIndex(uint256)": {
        "details": "See {IERC721Enumerable-tokenByIndex}."
      },
      "tokenOfOwnerByIndex(address,uint256)": {
        "details": "See {IERC721Enumerable-tokenOfOwnerByIndex}."
      },
      "tokenURI(uint256)": {
        "details": "See {IERC721Metadata-tokenURI}."
      },
      "totalSupply()": {
        "details": "See {IERC721Enumerable-totalSupply}."
      },
      "transferFrom(address,address,uint256)": {
        "details": "See {IERC721-transferFrom}."
      },
      "transferOwnership(address)": {
        "details": "Transfers ownership of the contract to a new account (`newOwner`). Can only be called by the current owner."
      }
    },
    "version": 1
  },
  "userdoc": {
    "kind": "user",
    "methods": {},
    "version": 1
  }
}